:1000000023C03DC03CC03BC03AC039C038C037C037
:10001000EFC035C034C033C032C031C030C02FC093
:100020002EC02DC02CC014C12AC029C028C027C092
:1000300026C025C00210011103000D102803250859
:1000400004013D303E30020011241FBECFEFCDBF72
:10005000DFE3DEBF1FE3A0E0BFE3EEE5F3E002C0B5
:1000600005900D92A230B107D9F72FE3A2E0BFE3CC
:1000700001C01D92A630B207E1F766D16EC1C0CFB4
:10008000E0E0F4E098E0958380E48583818326E0D6
:100090002A95F1F700C0868386E08A95F1F700C0C3
:1000A000968326E02A95F1F700C00895E0E0F4E099
:1000B00080E48183868398E0968326E02A95F1F791
:1000C00000C0958396E09A95F1F700C0858326E0FD
:1000D0002A95F1F700C082830895E0E0F4E080E41F
:1000E000828326E02A95F1F700C098E09583808509
:1000F0002AE12A95F1F700C026E02A95F1F700C021
:10010000968396E09A95F1F700C086FB882780F9E0
:1001100091E08927089590E49093010498E030E4F9
:1001200028E087FF03C03093050402C03093060423
:1001300046E04A95F1F700C02093050446E04A9551
:10014000F1F700C020930604880F915051F7611118
:10015000C4CF81E008951F93CF93DF93182FD62F3C
:10016000C42F8EDF61E0812F880FD5DF811103C09E
:100170009DDF80E00AC061E08D2FCDDF8823C1F3D1
:1001800061E08C2FC8DF882399F3DF91CF911F9115
:100190000895813319F48091003F0895813031F042
:1001A000823031F0882331F08FEF089580E0089598
:1001B00081E0089588E80895E0E1F8E08EE2848720
:1001C000168681EE81870895E0E0F4E080E881837F
:1001D00088E08583858381830895E0E0FAE08FE0FD
:1001E000808388EE91E086A397A381E082870895BB
:1001F0001F920F920FB60F9211248F939F938091AD
:10020000053F8823C1F08091043F882321F080E8D6
:100210008093060403C080E8809305049091043F16
:1002200081E0911180E08093043F8091053F8150EF
:100230008093053F03C080E88093060481E08093AB
:100240000B0A9F918F910F900FBE0F901F901895E2
:100250001F920F920FB60F9211242F933F934F933B
:100260005F936F937F938F939F93AF93BF93EF931E
:10027000FF9380911B0886FF0FC083E080931A08CC
:1002800080911B0881FF06C08091033F82DF80932D
:100290001D0802C01092023F80911B0887FF1FC0FB
:1002A00080911B0881FF06C08091033F72DF80931D
:1002B0001D0812C08091023F811108C080911D0865
:1002C0008093033F81E08093023F06C080911D0828
:1002D0008091033F1092023F83E080931A08FF91C0
:1002E000EF91BF91AF919F918F917F916F915F91AE
:1002F0004F913F912F910F900FBE0F901F90189527
:100300000F931F93CF93DF93D82F04E310E0C2E045
:10031000F8016491319644918D2F1DDF811102C047
:10032000C093053F0E5F1F4FCE5FC63189F7DF9147
:10033000CF911F910F9108958CE4E2DF8DE4E0DF0F
:100340008EE4DEDF8FE4DCCF3FDF36DF46DF7894FC
:0E035000F3DF82E08093053FFFCFF894FFCFEC
:02035E0030006D
:00000001FF
