:100000000C9449000C9463000C9463000C946300FE
:100010000C9463000C9463000C9435050C946300FD
:100020000C9463000C9463000C9463000C946300C4
:100030000C9463000C9463000C9459050C9407060F
:100040000C9463000C9463000C9463000C946300A4
:100050000C94C9040C9463000C9463000C9463002A
:100060000C94ED040C9459040C9463000C946300FC
:100070000C9463000C9481040C9463000C94630052
:100080000C9463000C9463000C9411050C94A5046B
:10009000B10611241FBECFEFCDBFDFE3DEBF2EE3DD
:1000A000A0E0BCE301C01D92A430B207E1F710E06C
:1000B000C9E4D0E003C02197FE0194D9C834D10728
:1000C000D1F7EBD6A1C99CCF282F30E0F901E35A34
:1000D000FB4A90819F3F01F12E5B3B4AF9018081F1
:1000E000E82FEE0FEE0FEE0FE90FEF32A8F4F0E07D
:1000F000EE0FFF1FEC58F24C6083718320E2829F69
:10010000F0011124FC5F7096E90FF11D8081887F5A
:1001100080838081816080830895E091643CF091C8
:10012000653C309741F010925F3C10925E3C09951F
:1001300080915E3C089580E00895E091623CF091EA
:10014000633C309759F03091613C2091603C32170C
:1001500028F01092613C8093603C09940895CF93FD
:10016000DF9390E0FC01E95DFB4A20812F3F61F0C5
:10017000FC01EE5BFB4AE08130E2E39FF0011124D9
:10018000FC5F613021F42183DF91CF910895835A80
:100190009B4AEC01A881AF3F69F0CF014096A80FC0
:1001A000B92FB11D9FB7F89422838C91877F8C93D0
:1001B0009FBFEACFB0E0A0E0F5CF90E0FC01E45FA4
:1001C000FB4AE081EE2319F1E13021F000F1E63045
:1001D000A8F00895835A9B4AFC012081233008F03F
:1001E0002F5F3091010A81E090E001C0880F2A95CD
:1001F000EAF7809583238093010A089580E1E89FC0
:10020000F0011124E05AF54F81818F7E818308959A
:100210000F931F93CF93DF93C82FD0E0FE01E95DCA
:10022000FB4A00810F3F99F0162F8B3108F4C5DF90
:10023000FE01EE5BFB4AE08180E2E89FF0011124C1
:10024000FC5F8081802351F0111106C00683DF918D
:10025000CF911F910F9108950583F9CFC35ADB4ABF
:100260008881309771F08F3F61F07096E80FF11D33
:100270009FB7F8948081111107C0877F80839FBF4B
:10028000E6CFF0E0E0E0F4CF8860F8CF8B3108F4FF
:10029000BFCF08950F931F93CF93082F10E0F8015D
:1002A000E95DFB4AC081CF3F81F08B3108F485DFE7
:1002B000F801EE5BFB4AE08180E2E89FF001112447
:1002C000FC5F8085C82381E009F480E0CF911F9115
:1002D0000F9108958B3108F4DDCF80E00895EF92FF
:1002E000FF920F931F93CF93DF93E82EF12CF7012A
:1002F000E35AFB4A00810F3FB1F1EB01182F61E097
:100300002EDF209749F460E0812FDF91CF911F917C
:100310000F91FF90EF90BACFCF3FD10514F061E07D
:10032000F3CFF701E45FFB4AE081E13039F010F0F0
:10033000E63018F1C038D10594F7E5CFE02FF0E0B2
:10034000EE0FFF1F0330B0F0ED5DF54F0F5FC08380
:100350008091010A21E030E001C0220F0A95EAF7FE
:10036000822B8093010ADF91CF911F910F91FF9013
:10037000EF900895E85DF54FEACF80E1E89FF00146
:100380001124E05AF54FC587818180618183EBCFCD
:100390008FB7F89420910A3C30910B3C40910C3C73
:1003A00050910D3CE091AA0AF091AB0A9091A60AF7
:1003B00090FF08C02F5F3F4F4F4F5F4FE091AA0A59
:1003C000F091AB0A8FBFA8EEB3E002D824E0F69517
:1003D000E7952A95E1F76E0F7F1F811D911D089506
:1003E0008F929F92AF92BF92CF92DF92EF92FF9245
:1003F0004B015C01CDDF6B017C01A8EEB3E0A501F0
:100400009401E6D7C60ED71EE81EF91EC616D706FB
:10041000E806F90610F4BCDFF9CFBADF6C157D05EC
:100420008E059F05D0F3FF90EF90DF90CF90BF90A7
:10043000AF909F908F9008952FB7F89460910A3CE9
:1004400070910B3C80910C3C90910D3C2FBF089516
:10045000EF92FF920F931F93CF93DF9390E2899FC8
:10046000E0011124DC5FE984082F000F000F000F6A
:10047000FF24F39410E08E2D8F2179F0E02FE10F0F
:10048000F0E0EE0FFF1FEC58F24C80819181892B38
:1004900021F00190F081E02D09951F5FFF0C1830CD
:1004A00051F7E986DF91CF911F910F91FF90EF9067
:1004B0000895E0EAF8E091859066918792E0909344
:1004C0001D3C8093193C10921A3C089581E0809362
:1004D0001A3C1092193C93E09093AA089091AB08B3
:1004E00091FF0DC010921B3CE091153CF091163C21
:1004F00009958093093C85E080931D3C08951092F6
:100500001C3C8093173C86E0F7CF0895E091613C56
:100510008091603CE81730F4F0E0E25EF34C8081BB
:1005200090E008958FEF9FEF08959091613C809146
:10053000603C2FEF3FEF981748F4E92FF0E0E25EC0
:10054000F34C208130E09F5F9093613CC901089596
:100550008091603C9091613C891B990B0895CF92EA
:10056000DF92EF92FF920F931F93CF93DF937C0163
:100570008A01EB016B01C40ED51ECC15DD0551F0CF
:100580006991D701ED91FC910190F081E02DC701B7
:100590000995F3CFC801DF91CF911F910F91FF9083
:1005A000EF90DF90CF90089520915E3C203240F094
:1005B00021E030E0FC012283338390E080E0089565
:1005C00080915F3CE82FF0E0E25CF34C60838F5F4A
:1005D00080935F3C80935E3C81E090E00895E091E1
:1005E000003CF0E0E259F34C608182ED9DE3DCDFFA
:1005F0008091003C8C3031F4E091003CF0E0E25915
:10060000F34C1082089590E080E00895CF93DF933B
:10061000EC0182ED9DE389DF8093003C8091003CFA
:1006200022974CF082ED9DE380DFE091003CF0E00A
:10063000E259F34C8083DF91CF91089590E080E000
:10064000FC01F4612081FC01E259F34C2083019606
:100650008F3F9105A9F781E080936B3D10926C3D2F
:1006600010926A3D0895CF93C82F34DE61E0811166
:1006700060E08C2FCF910ACEFF920F931F93CF9300
:10068000DF938091DE3D26DE082F10E08091E03D73
:1006900021DE2091E63D3091E73D0217130789F0F6
:1006A000C82FD0E00093E63D1093E73D8091E83DF0
:1006B0009091E93D88379340C9F4C093E83DD093C9
:1006C000E93D2091E43D3091E53D81E0232B09F4A3
:1006D00080E08093793C8EE090E0C5DF81E090E09F
:1006E000DF91CF911F910F91FF90BDCF8091E83D99
:1006F0009091E93DC817D90721F3FF24F3940C1713
:100700001D0709F4F12C8CE0C5DD61E0811160E08A
:100710008CE07EDD2091F33D8091FA3D9091FB3D90
:10072000F21651F12091E43D3091E53D280F391F3B
:1007300081E090E08093E23D9093E33D8091F43D31
:100740009091F53D4091F83D442339F14091F63DBB
:100750005091F73D82179307C4F44093E43D5093C2
:10076000E53D8091F93D8111A8CF88E793E0809322
:10077000E83D9093E93DA5CF2091E43D3091E53DE2
:10078000281B390B8FEF9FEFD5CF24173507A4F423
:100790008093E43D9093E53DE4CF821793073CF0CE
:1007A0008091F63D9091F73D281739072CF410926F
:1007B000E23D1092E33DD5CF2093E43D3093E53DFB
:1007C000D0CF0F931F93CF93DF938091EA3D82DDCB
:1007D000C1E0811101C0C0E0D091EC3D8091ED3DC0
:1007E000882309F446C028DE0091EF3D1091F03DCA
:1007F0002091F13D3091F23D601B710B820B930B08
:100800000091003E1091013E2091023E3091033E46
:10081000061717072807390718F481E08093EE3D83
:100820000BDE0091EF3D1091F03D2091F13D3091B4
:10083000F23D601B710B820B930B0091FC3D1091FC
:10084000FD3D2091FE3D3091FF3D0617170728071B
:100850003907E8F4CD131BC01092ED3D1092EE3D28
:100860001092EF3D1092F03D1092F13D1092F23D4A
:100870000EC0CD1789F381E08093ED3DDDDD6093FF
:10088000EF3D7093F03D8093F13D9093F23D809168
:10089000EE3D811107C08091ED3D882319F081E084
:1008A0008093763C81E090E0DF91CF911F910F9192
:1008B000DACE1F920F920FB60F9211248F939F934F
:1008C000AF93BF9380910A3C90910B3CA0910C3C5C
:1008D000B0910D3C0196A11DB11D80930A3C9093EF
:1008E0000B3CA0930C3CB0930D3C81E08093A60A96
:1008F000BF91AF919F918F910F900FBE0F901F905E
:1009000018951F920F920FB60F9211242F933F93B9
:100910004F935F936F937F938F939F93AF93BF9307
:10092000EF93FF9385E094DDFF91EF91BF91AF913D
:100930009F918F917F916F915F914F913F912F91F7
:100940000F900FBE0F901F9018951F920F920FB629
:100950000F9211242F933F934F935F936F937F9345
:100960008F939F93AF93BF93EF93FF9384E070DDDA
:10097000FF91EF91BF91AF919F918F917F916F9177
:100980005F914F913F912F910F900FBE0F901F904D
:1009900018951F920F920FB60F9211242F933F9329
:1009A0004F935F936F937F938F939F93AF93BF9377
:1009B000EF93FF9383E04CDDFF91EF91BF91AF91F7
:1009C0009F918F917F916F915F914F913F912F9167
:1009D0000F900FBE0F901F9018951F920F920FB699
:1009E0000F9211242F933F934F935F936F937F93B5
:1009F0008F939F93AF93BF93EF93FF9382E028DD94
:100A0000FF91EF91BF91AF919F918F917F916F91E6
:100A10005F914F913F912F910F900FBE0F901F90BC
:100A200018951F920F920FB60F9211242F933F9398
:100A30004F935F936F937F938F939F93AF93BF93E6
:100A4000EF93FF9381E004DDFF91EF91BF91AF91B0
:100A50009F918F917F916F915F914F913F912F91D6
:100A60000F900FBE0F901F9018951F920F920FB608
:100A70000F9211242F933F934F935F936F937F9324
:100A80008F939F93AF93BF93EF93FF9380E0E0DC4E
:100A9000FF91EF91BF91AF919F918F917F916F9156
:100AA0005F914F913F912F910F900FBE0F901F902C
:100AB00018951F920F920FB60F9211242F933F9308
:100AC0004F935F936F937F938F939F93AF93BF9356
:100AD000CF93EF93FF93C091AB08C2FF09C0109270
:100AE0001C3C10921B3C1092093C84E0E2DC13C0D9
:100AF000C6FF2DC08091173C813051F480911C3C81
:100B0000E091113CF091123C90E009951092173C55
:100B1000C0FF13C0DBDCFF91EF91CF91BF91AF918C
:100B20009F918F917F916F915F914F913F912F9105
:100B30000F900FBE0F901F90189580E48093AB0824
:100B400081E0B7DC8091AB0885FFE5CFE3CFC7FF3D
:100B50005CC0C3FF08C010921C3C10921B3C10925A
:100B6000093C83E0C3CF8091A90880668093A908DF
:100B70008091AB0881FF2CC080911B3C882349F0F9
:100B80008091AB0884FF05C082E08093AA0881E0D1
:100B9000ADCF90911B3C8091093C9817A8F4E0914F
:100BA0001B3C8091133C9091143CE80FF92FF11DF0
:100BB00080818093AD0880911B3C8F5F80931B3CAC
:100BC00083E08093AA08A7CF82E08093AA088ECF03
:100BD00090911C3C80910E3C981790F48091AD0848
:100BE000E0911C3C20910F3C3091103CE20FF32F20
:100BF000F11D808380911C3C8F5F80931C3CE0CF73
:100C000086E08093AA0882E071CF85E06FCF1F92C3
:100C10000F920FB60F9211242F938F939F93EF9300
:100C2000FF938091A508982F9C70C1F08091A50832
:100C300094E082FF93E09093083C8093A50881E0C4
:100C400080931D3C1092073CFF91EF919F918F91F3
:100C50002F910F900FBE0F901F90189586FF46C0E2
:100C60002091033C9091053C8091A50884FF10C021
:100C70008091043C882351F083E08093A40885E0B0
:100C80008093083C1092073C81E02BC081E0F5CFB7
:100C90008091023C821760F4E091023CF0E0808198
:100CA0008093A8088091023C8F5F8093023CCCCF58
:100CB0008091063C891748F484E080931D3C809124
:100CC000013C81608093A708BFCF8091043C8823BA
:100CD00059F083E08093A40881E08093083C10924F
:100CE000073C80931D3CB0CF81E0F4CF87FF37C035
:100CF0009091063C8091053C9817A8F48091A80833
:100D0000E091063CF0E080838091063C8F5F809309
:100D1000063C9091053C8091063C8917C0F482E026
:100D20008093A40891CF8091043C882371F087E0E0
:100D30008093A40882E08093083C1092073C81E0F5
:100D400080931D3C1092053C7FCF85E0F1CF8091D0
:100D5000043C882311F087E0BDCF85E0BBCF86E05F
:100D60008FCF1092D43D1092D53D88EE93E0A0E055
:100D7000B0E08093D63D9093D73DA093D83DB093FB
:100D8000D93D8CE794E58093D23D9093D33D10926A
:100D9000E23D1092E33D1092E43D1092E53D88E77C
:100DA00093E08093E63D9093E73D8093E83D9093F8
:100DB000E93D1092EC3D1092ED3D1092EE3D109207
:100DC000EF3D1092F03D1092F13D1092F23D1092E5
:100DD000F33D8AE090E08093F43D9093F53D26EF5B
:100DE0003FEF2093F63D3093F73D1092F83D10927F
:100DF000F93D21E030E02093FA3D3093FB3D44E69D
:100E000050E060E070E04093FC3D5093FD3D609306
:100E1000FE3D7093FF3D4CEB52E060E070E040938C
:100E2000003E5093013E6093023E7093033E28E0E3
:100E300030E02093DE3D3093DF3D29E030E0209329
:100E4000E03D3093E13D8093EA3D9093EB3D60E0DF
:100E500088E085D98091E03D8B3110F460E07FD946
:100E60008091EA3D8B3110F460E079D98091EC3DBE
:100E700091E089278093EC3D8091DE3D2BDA90E074
:100E80008093E63D9093E73D8091E03D23DA90E04A
:100E90008093E83D9093E93D089588ED90E084BF0C
:100EA0009093610080910206866080930206809193
:100EB0000006816080930006809102068F7C806529
:100EC000809302061092E20583E08093E405C1E07E
:100ED000C093030A9EEF9093270A9093260A80E816
:100EE00080932D0A80932B0A8093290A80932C0AE1
:100EF00080932A0A8093280A2BE02093000A1092FC
:100F0000E50537E03093810A90938C0A80938D0A2F
:100F100025E02093800A3093910A90939C0A809355
:100F20009D0A2093900A3093A10A9093AC0A809373
:100F3000AD0A2093A00A1092A10A8FE79EE3809346
:100F4000AC0A9093AD0A8091A50A81608093A50AAE
:100F50001092A00A8091A00A81608093A00A7894E0
:100F6000C093763C61E080E0FAD860E080E050D940
:100F700061E08CE0F4D861E08DE0F1D861E08EE0D2
:100F8000EED861E08EE044D961E08DE041D961E0C6
:100F90008CE03ED960E08EE03BD968EC70E080E008
:100FA00090E01EDA61E08EE033D960E08DE030D968
:100FB00068EC70E080E090E013DA61E08DE028D921
:100FC00060E08CE025D968EC70E080E090E008DA21
:100FD00061E08CE01DD981E090E88093F63D90932C
:100FE000F73D80E090E88093F43D9093F53DC09309
:100FF000F83D6CE373E088E067D86CE373E089E068
:1010000063D861EE73E08AE05FD81092613C109281
:10101000603C10925F3C10925E3C80911D3C8111BF
:1010200019C082E080931D3C10921C3C10921B3C26
:1010300010921A3C1092193C1092183C1092173CD6
:101040008EEE8093AC081092AE0881EE8093A908D2
:10105000C093A3088DE890E08093153C9093163CD4
:101060008EE39CE38093133C9093143C8DE990E0D5
:101070008093113C9093123C8EE19CE380930F3C53
:101080009093103C80E280930E3C86E093E0809346
:10109000623C9093633C8FEE92E08093643C90932B
:1010A000653C61E081E05BD8C9DA08EE13E0EE242C
:1010B000EA94F12C43E0942E50E0C52E50E0D52E5A
:1010C0006FE7A62EB12C8091EE3D8111EEC080918C
:1010D000ED3D90E02091723D3091733D2817390726
:1010E00009F4E6C08093723D9093733D019749F4F3
:1010F000A3D960936E3D70936F3D8093703D909344
:10110000713D8091763C61E0882309F447C180E01D
:101110007FD880916F3C8111F6C0A0926C3CB09258
:101120006D3C8091703CC0916C3CD0916D3C8C9F2B
:10113000B0018D9F700D112477FF02C061587F4F61
:10114000660F672F661F770B719561957109615066
:101150007F4F8EE0C4D88091713C8C9FB0018D9FF1
:10116000700D112477FF02C061587F4F660F672F03
:10117000661F770B71956195710961507F4F8DE006
:10118000AED88091723C8C9FB0018D9F700D112460
:1011900077FF02C061587F4F660F672F661F770B7E
:1011A00071956195710961507F4F8CE098D880915D
:1011B000773C882309F403C18091683C9091693C95
:1011C000A0916A3CB0916B3C892B8A2B8B2BD1F47C
:1011D00033D9AB01BC012091773C209FC001219FF6
:1011E000900D1124092E000CAA0BBB0B840F951F28
:1011F000A61FB71F8093683C9093693CA0936A3CFC
:10120000B0936B3C4090683C5090693C60906A3C65
:1012100070906B3C4114510461047104B1F00CD91D
:10122000461657066806790680F41092683C1092BC
:10123000693C10926A3C10926B3C1092663C109292
:10124000673C1092763C1092773C8091693D8823F0
:10125000D1F090E080E0FC01E259F34C2081FC01E8
:10126000F46120832FB7F8943DE934BF90920010C9
:101270002FBF2091021021FDFCCF01968F3F9105D9
:1012800051F71092693D80916A3D882319F0D6D9B3
:1012900010926F3C64E170E080E090E0A1D8C1144E
:1012A000D10409F410CFACD60ECF82E090E012CF7B
:1012B000019709F026CF8091783C882309F421CF4B
:1012C0008091783C809F2001819F500C1124052C37
:1012D000000C6608770880916E3D90916F3DA0915B
:1012E000703DB091713D480E591E6A1E7B1EA4D8F8
:1012F000461657066806790608F003CF1092763C2A
:101300001092773CFECE80916F3C8130B1F4809199
:10131000663C9091673C01968093663C9093673C55
:1013200099278038910524F09701281B390BC901B2
:1013300080936C3C90936D3CF4CE80916F3C8230F6
:1013400081F48091663C9091673C01968093663C65
:101350009093673C9927803891059CF48FE790E043
:10136000E7CF80916F3C833079F48091663C909117
:10137000673C01968093663C9093673C992702975F
:101380006CF390E080E0D4CF80916F3C843009F022
:10139000C8CE10926C3C10926D3CC3CE8EE038D714
:1013A00061E08DE035D761E08CE032D760E080E02D
:1013B0002FD764E670E080E090E012D8F8CE10926B
:1013C000683C1092693C10926A3C10926B3C1ACFB8
:1013D0000FD0A59F900DB49F900DA49F800D911DDF
:1013E00011240895EE0FFF1F0590F491E02D09944C
:1013F000A29FB001B39FC001A39F01D0B29F700D07
:0C140000811D1124911D0895F894FFCF68
:10140C0000000203000000000000000001010101C7
:10141C00010100000000000000000001020408109F
:10142C0020408001020408010204081020408001C1
:10143C00020408102040000000000000000002021E
:10144C000202030303030303030305050505050556
:10145C000500010203040506070001020300010256
:10146C000304050607000102030405060000000042
:0E147C00D402AF0203038502A8029502860285
:00000001FF
