:1000000019C033C032C031C030C02FC02EC02DC087
:100010002CC02BC02AC029C028C027C026C025C09C
:1000200024C023C022C03CC120C01FC01EC01DC0B0
:100030001CC01BC011241FBECFEFCDBFDFE3DEBF4E
:100040001FE3A0E0BFE3E8E1F8E002C005900D92F5
:10005000A031B107D9F72FE3A0E1BFE301C01D92A2
:10006000AB33B207E1F78BD395C3CACF88E4809353
:100070000504089586E08A95F1F700C0089521E00F
:1000800030E0A90102C0440F551F8A95E2F7E0E075
:10009000F4E041834683089521E030E001C0220F5F
:1000A0008A95EAF72093020408959091080421E0CC
:1000B00030E002C0220F331F8A95E2F7892F90E0CB
:1000C0002823392381E0232B09F480E00895E0E020
:1000D000F4E090E4928388E0828326E02A95F1F7A9
:1000E00000C09183968396E09A95F1F700C08183D2
:1000F00086830895E0E0F4E080E48183868396E0DF
:100100009A95F1F700C098E0928396E09A95F1F7FE
:1001100000C0828386E08A95F1F700C0089528E048
:1001200030E040E498E087FF2CC04093020456E0A2
:100130005A95F1F700C09093020456E05A95F1F7F2
:1001400000C09093010490930604880F2150304022
:1001500051F780E48093020486E08A95F1F700C0AD
:10016000909302048091080426E02A95F1F700C0DC
:100170009093010490930604002486FF0394802D3D
:1001800008954093010440930604D1CF982F80E452
:100190008093020428E030E080E048E0880F40933C
:1001A00002045091080456FD816056E05A95F1F71B
:1001B00000C0409301044093060456E05A95F1F7BD
:1001C00000C02150304051F79115C1F090E4909358
:1001D00001049093060496E09A95F1F700C098E028
:1001E0009093020426E02A95F1F700C09093010451
:1001F0009093060490E490930204089590E4909301
:100200000204E9CFCF93DF93C82FD62F60DFCC0F46
:100210008C2F85DF8D2F83DF5ADF8C2F81607FDF6E
:1002200080E0B4DFC82F66DF8C2FDF91CF91089577
:10023000CF93DF93C82FD62F4ADFCC0F8C2F6FDFE1
:10024000811106C057DFCFEF8C2FDF91CF9108953A
:100250008D2F65DF3CDF8C2F816061DF811591F38D
:1002600080E094DFC82F46DFEFCF1F93CF93DF935B
:10027000182FD62FC42F2BDF812F880F50DF8D2F03
:100280004EDF8C2F4CDFDF91CF911F9133CFE0E118
:10029000F8E080E2848781EC818780EC8387089591
:1002A0001F920F920FB60F9211242F933F934F93EB
:1002B0005F936F937F938F939F93AF93BF93EF93CE
:1002C000FF9380911B0886FF0BC080911B08806400
:1002D00080931B081092123F1092113F1092103F12
:1002E00080911B088115BCF480911B0881FF2EC0F2
:1002F0008091113F811120C08091133F73D091E014
:100300009093113F9093103F80931D0880911B089C
:10031000806880931B08FF91EF91BF91AF919F91EF
:100320008F917F916F915F914F913F912F910F909E
:100330000FBE0F901F9018959091133F8091103F22
:10034000890F50D09091103F9F5FDCCF60911D08C6
:100350008091123F811106C06093133F81E080932A
:10036000123FD4CF8091133F01D0D0CF2091183FBE
:1003700091E0920F2F3009F490E02091173F291758
:10038000A1F0E091183FF0E0EE0FFF1FE55EF04CAA
:100390008083E091183FF0E0EE0FFF1FE55EF04C28
:1003A00061839093183F80E0089581E00895109252
:1003B000193FE2EDF7E820E030E0908198130AC0A1
:1003C00081E08093193F220F331FF901EE52F84765
:1003D000818108952F5F3F4F32962332310569F7AF
:1003E0008AEA0895CF93C82FE2DFC93580F4C0357B
:1003F00020F4C633D9F0CF910895C15580910B3FB9
:10040000C830C8F7EC2FF0E0E453FC4F0994C23F2A
:1004100059F138F4C03F29F1C13F69F78091153F88
:10042000EACFC33F41F780910A3FE5CF80911A3F61
:10043000E2CF8091003FDFCF8091013FDCCF809100
:10044000023FD9CF8091033FD6CF8091043FD3CFD5
:100450008091053FD0CF8091063FCDCF8091073F5F
:10046000CACF8091163FC7CF8091143FC4CF0F935E
:100470001F93CF93E82FC62F893548F4843480F03A
:10048000E454E53168F4F0E0EC52FC4F0994813F0C
:1004900009F4E6C0823F09F4E6C0803F09F4DDC0FC
:1004A000CF911F910F91089580910B3F8617C1F353
:1004B000E0E0FFE348E05FE3682F70E00C2F10E01E
:1004C0009C2F981B81919B01280F311D200F311FFC
:1004D000890F211531400CF08FEFDF018E934E17FD
:1004E0005F0781F7C0930B3F4CE46DE38091003FC1
:1004F000FFD04CE46EE38091013FFAD04DE46DE310
:100500008091023FF5D04DE46EE38091033FF0D03F
:100510004EE46DE38091043FEBD04EE46EE38091B6
:10052000053FE6D04FE46DE38091063FE1D04FE414
:100530006EE38091073FCF911F910F91D9C08091B9
:100540000B3FE82FE60FFF27FF1F9F01860F2115A6
:1005500031400CF08FEF8093003F4CE46DE3EBCF24
:1005600080910B3F482F460F5527551F9A01860F44
:10057000211531400CF08FEF8093013F4CE46EE386
:10058000DACF80910B3FE82FE60FFF27FF1F9F0177
:10059000860F211531400CF08FEF8093023F4DE420
:1005A000DDCF80910B3F482F460F5527551F9A01ED
:1005B000860F211531400CF08FEF8093033F4DE4FF
:1005C000DECF80910B3FE82FE60FFF27FF1F9F0133
:1005D000860F211531400CF08FEF8093043F4EE4DD
:1005E000BDCF80910B3F482F460F5527551F9A01CD
:1005F000860F211531400CF08FEF8093053F4EE4BC
:10060000BECF80910B3FE82FE60FFF27FF1F9F0112
:10061000860F211531400CF08FEF8093063F4FE499
:100620009DCF80910B3F482F460F5527551F9A01AC
:10063000860F211531400CF08FEF8093073F4FE478
:100640009ECF0CE01FE3F80161918F018C2F80D0C9
:10065000FFE300311F07B9F723CF6093163F20CF88
:100660006093153F1DCF6093143F8091163F8430F7
:1006700070F44091143F6091153FE091163FF0E017
:10068000E45FF04C808168D080930A3F09CF8FEF00
:10069000FBCF9091173F8091183F981301C00895A8
:1006A000E091173FF0E0EE0FFF1FE55EF04C618137
:1006B000E091173FF0E0EE0FFF1FE55EF04C808108
:1006C000D6DE9091173F81E0890F9F3009F480E0DA
:1006D0008093173FDECFCF93DF93CCE0DFE38991A8
:1006E0000BD08FE3C031D807D1F7DF91CF910895B8
:1006F000982F842F492FB9CDCF93C82F40E162E0C6
:10070000B4DD41E162E08C2FB0DD40E063E08C2F8E
:10071000ACDD40E16DE08C2FA8DD43E068E28C2F7A
:10072000A4DD48E065E28C2FA0DD41E064E08C2F81
:100730009CDD40910B3F6DE38C2F97DD40910B3F8B
:100740006EE38C2F92DD40E062E08C2FCF918DCD57
:10075000482F862F6BE289CDCF93DF93C82FD42FFC
:10076000462F60E082DD6D2F8C2F62DDD82F40E0B8
:1007700060E08C2F7ADD8D2FDF91CF91089588EC8A
:100780008093010488E48093050481DD7894A3DFDD
:1007900080DFFECFF894FFCF4CCE4ECE50CE52CE5F
:1007A00054CE56CE58CE5ACE4CCF7ACE79CE78CEC5
:1007B00077CE76CE75CE74CE73CE72CE71CE70CE2D
:1007C00073CEBDCECDCEDDCEECCEFBCE0ACF19CFD3
:0207D00028CF30
:1007D20000000100020303000400050110BE113BEA
:1007E2001281136414DD157B164817FC18AB192708
:1007F2001A791BDD1C7C1D641E191F8020FE211F1F
:10080200220023002444250426002700290828006A
:060812002D182E992F05A0
:1008180030303030303030301644FF304C4D4E4F91
:00000001FF
