:1000000019C033C032C031C030C02FC02EC02DC087
:100010002CC02BC02AC029C028C027C026C025C09C
:1000200024C023C022C01FC120C01FC01EC01DC0CD
:100030001CC01BC011241FBECFEFCDBFDFE3DEBF4E
:100040001FE3A0E0BFE3ECE3F7E002C005900D92F0
:10005000A031B107D9F72FE3A0E1BFE301C01D92A2
:10006000A833B207E1F71DD327C3CACF88E4809332
:100070000504089586E08A95F1F700C0089521E00F
:1000800030E0A90102C0440F551F8A95E2F7E0E075
:10009000F4E041834683089521E030E001C0220F5F
:1000A0008A95EAF72093020408959091080421E0CC
:1000B00030E002C0220F331F8A95E2F7892F90E0CB
:1000C0002823392381E0232B09F480E00895E0E020
:1000D000F4E090E4928388E0828326E02A95F1F7A9
:1000E00000C09183968396E09A95F1F700C08183D2
:1000F00086830895E0E0F4E080E48183868396E0DF
:100100009A95F1F700C098E0928396E09A95F1F7FE
:1001100000C0828386E08A95F1F700C0089528E048
:1001200030E040E498E087FF2CC04093020456E0A2
:100130005A95F1F700C09093020456E05A95F1F7F2
:1001400000C09093010490930604880F2150304022
:1001500051F780E48093020486E08A95F1F700C0AD
:10016000909302048091080426E02A95F1F700C0DC
:100170009093010490930604002486FF0394802D3D
:1001800008954093010440930604D1CF982F80E452
:100190008093020428E030E080E048E0880F40933C
:1001A00002045091080456FD816056E05A95F1F71B
:1001B00000C0409301044093060456E05A95F1F7BD
:1001C00000C02150304051F79115C1F090E4909358
:1001D00001049093060496E09A95F1F700C098E028
:1001E0009093020426E02A95F1F700C09093010451
:1001F0009093060490E490930204089590E4909301
:100200000204E9CFCF93DF93C82FD62F60DFCC0F46
:100210008C2F85DF8D2F83DF5ADF8C2F81607FDF6E
:1002200080E0B4DFC82F66DF8C2FDF91CF91089577
:100230001F93CF93DF93182FD62FC42F48DF812F22
:10024000880F6DDF8D2F6BDF8C2F69DFDF91CF91F2
:100250001F9150CFE0E1F8E080E2848781EC818754
:1002600080EC838708951F920F920FB60F9211248E
:100270002F933F934F935F936F937F938F939F93AE
:10028000AF93BF93EF93FF9380911B0886FF0BC042
:1002900080911B08806480931B081092123F10927B
:1002A000113F1092103F80911B088115BCF4809182
:1002B0001B0881FF30C08091113F811120C08091C7
:1002C000133F71D091E09093113F1092103F8093B3
:1002D0001D0880911B08806880931B08FF91EF9197
:1002E000BF91AF919F918F917F916F915F914F914E
:1002F0003F912F910F900FBE0F901F9018959091E6
:10030000133F8091103F890F4ED09091103F9F5F17
:100310009093103FDCCF60911D088091123F8111B6
:1003200006C06093133F81E08093123FD2CF80914B
:10033000133F01D0CECF9091153F903111F4109220
:10034000153FE091153FF0E0EE0FFF1FE85EF04C27
:100350008083E091153FF0E0EE0FFF1FE85EF04C68
:1003600061838091153F8F5F8093153F80E00895F2
:100370001092163FE6EFF6E820E030E09081981307
:100380000AC081E08093163F220F331FF901EA5023
:10039000F947818108952F5F3F4F3296233231050F
:1003A00069F78AEA0895CF93C82FE2DFC63371F068
:1003B00090EB9C0F993060F4C15580910A3FC83092
:1003C00038F4EC2FF0E0E25AFC4F09948091173F8B
:1003D000CF9108958091003FFBCF8091013FF8CFEE
:1003E0008091023FF5CF8091033FF2CF8091043F8F
:1003F000EFCF8091053FECCF8091063FE9CF809110
:10040000073FE6CF0F931F93CF93C62F84548531B8
:1004100008F0DEC0E82FF0E0EA59FC4F0994809123
:100420000A3F861709F4D4C0E0E0FFE348E05FE349
:10043000682F70E00C2F10E09C2F981B81919B017E
:10044000280F311D200F311F890F211531400CF06D
:100450008FEFDF018E934E175F0781F7C0930A3F3E
:100460004CE46DE38091003FE8D04CE46EE3809172
:10047000013FE3D04DE46DE38091023FDED04DE4D7
:100480006EE38091033FD9D04EE46DE38091043F49
:10049000D4D04EE46EE38091053FCFD04FE46DE3BE
:1004A0008091063FCAD04FE46EE38091073FCF9121
:1004B0001F910F91C2C080910A3FE82FE60FFF27DE
:1004C000FF1F9F01860F211531400CF08FEF8093A5
:1004D000003F4CE46DE3EBCF80910A3F482F460F7D
:1004E0005527551F9A01860F211531400CF08FEFCB
:1004F0008093013F4CE46EE3DACF80910A3FE82F0E
:10050000E60FFF27FF1F9F01860F211531400CF0DA
:100510008FEF8093023F4DE4DDCF80910A3F482F5B
:10052000460F5527551F9A01860F211531400CF0B3
:100530008FEF8093033F4DE4DECF80910A3FE82F99
:10054000E60FFF27FF1F9F01860F211531400CF09A
:100550008FEF8093043F4EE4BDCF80910A3F482F38
:10056000460F5527551F9A01860F211531400CF073
:100570008FEF8093053F4EE4BECF80910A3FE82F76
:10058000E60FFF27FF1F9F01860F211531400CF05A
:100590008FEF8093063F4FE49DCF80910A3F482F15
:1005A000460F5527551F9A01860F211531400CF033
:1005B0008FEF8093073F4FE49ECF0BE01FE3F801DE
:1005C00061918F018C2F69D0FFE30F301F07B9F7BE
:1005D000CF911F910F9108959091143F8091153FF5
:1005E000981301C008958091143F803111F4109246
:1005F000143FE091143FF0E0EE0FFF1FE85EF04C77
:100600006181E091143FF0E0EE0FFF1FE85EF04CD7
:100610008081F8DE8091143F8F5F8093143FDCCFA0
:10062000CF93DF93CBE0DFE389910BD08FE3CF3023
:10063000D807D1F7DF91CF910895982F842F492FB4
:10064000F7CDCF93C82F40E162E0F2DD41E162E0F7
:100650008C2FEEDD40E063E08C2FEADD40E16DE0C1
:100660008C2FE6DD43E068E28C2FE2DD48E065E2B6
:100670008C2FDEDD41E064E08C2FDADD40910A3F13
:100680006DE38C2FD5DD40910A3F6EE38C2FD0DDDA
:1006900040E062E08C2FCF91CBCD482F862F6BE2CC
:1006A000C7CD88EC8093010488E480930504D2DDF3
:1006B0007894B6DF91DFFECFF894FFCF8BCE8DCE4E
:1006C0008FCE91CE93CE95CE97CE99CE76CF80CF4A
:1006D0007FCF7ECF7DCF7CCF7BCF7ACF79CF78CFC6
:1006E00077CF76CF9CCEE7CEF7CE07CF16CF25CFEC
:0606F00034CF43CF52CFCE
:1006F60000000100020203000400050110BE113BC8
:100706001281136414DD157B164817FC18AB1927E4
:100716001A791BDD1C7C1D641E191F8020FE211FFB
:100726002200230024442504260027002908280047
:060736002D182E992F057D
:10073C0030303030303030301644304C4D4E4F006D
:00000001FF
